{
    "contractName": "SimpleStorage",
    "abi": [
        {
            "inputs": [
                {
                    "internalType": "string",
                    "name": "_name",
                    "type": "string"
                },
                {
                    "internalType": "uint256",
                    "name": "_favoriteNumber",
                    "type": "uint256"
                }
            ],
            "name": "addPerson",
            "outputs": [],
            "stateMutability": "nonpayable",
            "type": "function"
        },
        {
            "inputs": [
                {
                    "internalType": "uint256",
                    "name": "",
                    "type": "uint256"
                }
            ],
            "name": "listOfPeople",
            "outputs": [
                {
                    "internalType": "uint256",
                    "name": "favoriteNumber",
                    "type": "uint256"
                },
                {
                    "internalType": "string",
                    "name": "name",
                    "type": "string"
                }
            ],
            "stateMutability": "view",
            "type": "function"
        },
        {
            "inputs": [],
            "name": "myFavoriteNumber",
            "outputs": [
                {
                    "internalType": "uint256",
                    "name": "",
                    "type": "uint256"
                }
            ],
            "stateMutability": "view",
            "type": "function"
        },
        {
            "inputs": [
                {
                    "internalType": "string",
                    "name": "",
                    "type": "string"
                }
            ],
            "name": "nameToFavoriteNumber",
            "outputs": [
                {
                    "internalType": "uint256",
                    "name": "",
                    "type": "uint256"
                }
            ],
            "stateMutability": "view",
            "type": "function"
        },
        {
            "inputs": [],
            "name": "retrieve",
            "outputs": [
                {
                    "internalType": "uint256",
                    "name": "",
                    "type": "uint256"
                }
            ],
            "stateMutability": "view",
            "type": "function"
        },
        {
            "inputs": [
                {
                    "internalType": "uint256",
                    "name": "_favoriteNumber",
                    "type": "uint256"
                }
            ],
            "name": "store",
            "outputs": [],
            "stateMutability": "nonpayable",
            "type": "function"
        }
    ],
    "bytecode": "608080604052346015576104e3908161001a8239f35b5f80fdfe6080806040526004361015610012575f80fd5b5f3560e01c9081632e64cec114610398575080632ebce631146102a05780636057361d146102885780636d83bc571461026c5780636f760f41146100b857638bab8dd51461005e575f80fd5b346100b45760203660031901126100b45760043567ffffffffffffffff81116100b45760208061009381933690600401610457565b604051928184925191829101835e8101600281520301902054604051908152f35b5f80fd5b346100b45760403660031901126100b45760043567ffffffffffffffff81116100b4576100e9903690600401610457565b6040516040810181811067ffffffffffffffff82111761024557604052602435815260208101918252600154680100000000000000008110156102455780600161013692016001556103b1565b6102595760019151815501905190815167ffffffffffffffff81116102455761015f82546103fd565b601f8111610200575b50602092601f82116001146101a457928192935f92610199575b50505f19600383901b1c191660019190911b179055005b015190508380610182565b601f19821693835f52805f20915f5b8681106101e857508360019596106101d0575b505050811b019055005b01515f1960f88460031b161c191690558380806101c6565b919260206001819286850151815501940192016101b3565b825f5260205f20601f830160051c8101916020841061023b575b601f0160051c01905b8181106102305750610168565b5f8155600101610223565b909150819061021a565b634e487b7160e01b5f52604160045260245ffd5b634e487b7160e01b5f525f60045260245ffd5b346100b4575f3660031901126100b45760205f54604051908152f35b346100b45760203660031901126100b4576004355f55005b346100b45760203660031901126100b4576004356001548110156100b4576102c7906103b1565b5060018154910190604051905f928054906102e1826103fd565b9081855260208501926001811690815f1461037b5750600114610341575b505061031083606094950385610435565b6040519384928352604060208401525180918160408501528484015e5f828201840152601f01601f19168101030190f35b9094505f5260205f205f905b858210610365575083016020019350610310836102ff565b600181602092548385890101520191019061034d565b60ff191684525050151560051b83016020019350610310836102ff565b346100b4575f3660031901126100b4576020905f548152f35b6001548110156103e95760015f81815291901b7fb10e2d527612073b26eecdfd717e6a320cf44b4afac2b0732d9fcbe2b7fa0cf60191565b634e487b7160e01b5f52603260045260245ffd5b90600182811c9216801561042b575b602083101461041757565b634e487b7160e01b5f52602260045260245ffd5b91607f169161040c565b90601f8019910116810190811067ffffffffffffffff82111761024557604052565b81601f820112156100b45780359067ffffffffffffffff8211610245576040519261048c601f8401601f191660200185610435565b828452602083830101116100b457815f92602080930183860137830101529056fea26469706673582212209e0347a18275558259251eba090a4e154cce69911bd2550e83c79a271a1e5ee964736f6c634300081e0033",
    "sourcePath": "/home/mcwachira/Documents/GitHub/learning-solidity/SimpleStorage/SimpleStorage.sol",
    "compiler": {
        "name": "solc",
        "version": "0.8.30+commit.73712a01"
    },
    "functionHashes": {
        "addPerson(string,uint256)": "6f760f41",
        "listOfPeople(uint256)": "2ebce631",
        "myFavoriteNumber()": "6d83bc57",
        "nameToFavoriteNumber(string)": "8bab8dd5",
        "retrieve()": "2e64cec1",
        "store(uint256)": "6057361d"
    },
    "gasEstimates": {
        "creation": {
            "codeDepositCost": "250200",
            "executionCost": "300",
            "totalCost": "250500"
        },
        "external": {
            "addPerson(string,uint256)": "infinite",
            "listOfPeople(uint256)": "infinite",
            "myFavoriteNumber()": "2321",
            "nameToFavoriteNumber(string)": "infinite",
            "retrieve()": "2247",
            "store(uint256)": "22282"
        }
    }
}